:100C6000C0011124B7018D5D984F05C0BF01645FBD
:100C70007F4F84E097E00E94C500E0914707F09124
:100C800048079E898689891748F481E00115110576
:100C900019F0F801808302C08093FD06DF91CF91A7
:100CA0001F910F91FF90EF90089584B78E7F84BFBE
:100CB0000FB6F894A89580916000886180936000D9
:100CC000109260000FBE809164008FEF80936400EB
:100CD000809165008D638093650080916400877FBB
:100CE000809364000E947504FFCF991B79E004C0D3
:100CF000991F961708F0961B881F7A95C9F780955B
:060D00000895F894FFCFF6
:060D060049444C450000C9
:020000023000CC
:00000001FF